:020000022000DC
:1070000000000420197202000172020003720200E3
:1070100005720200077202000972020000000000FF
:107020000000000000000000000000000B720200E1
:107030000D720200000000000F72020011720200C7
:1070400049D0020013720200E9DD020055EE020091
:107050006DEE020013720200E1DC02001372020006
:107060001372020013720200137202001372020004
:1070700013720200137202001372020013720200F4
:1070800013720200710D03001372020013720200EA
:1070900013720200137202009D3A03001372020081
:1070A00013720200137202001372020013720200C4
:1070B00013720200137202000000000000000000C2
:1070C00013720200137202001372020013720200A4
:1070D0001372020013720200137202001372020094
:1070E000137202001372020013720200000000000B
:1070F0000000000013720200000000001372020082
:10710000000000000000000000000000000000007F
:10711000000000000000000000000000000000006F
:10712000000000000000000000000000000000005F
:10713000000000000000000000000000000000004F
:10714000000000000000000000000000000000003F
:10715000000000000000000000000000000000002F
:10716000000000000000000000000000000000001F
:10717000000000000000000000000000000000000F
:1071800000000000000000000000000000000000FF
:1071900000000000000000000000000000000000EF
:1071A00000000000000000000000000000000000DF
:1071B00000000000000000000000000000000000CF
:1071C00000000000000000000000000000000000BF
:1071D00000000000000000000000000000000000AF
:1071E000000000000000000000000000000000009F
:1071F000000000000000000000000000000000008F
:10720000FEE7FEE7FEE7FEE7FEE7FEE7FEE7FEE756
:10721000FEE7FEE700F002B8FFF7FCBF0F484FF0B3
:107220000701884385460E4880470E48016841F4AF
:1072300070010160BFF34F8FBFF36F8F00F01AB87A
:1072400009480A490A4A884207D0521A05D00378E9
:1072500001300B700131013AF9D170470000042070
:10726000D995020088ED00E0F44C0300E82A0020E4
:10727000E82A00203A493B480A1A02D007229143E3
:107280008D46394939480A1A06D00722914381F3BD
:107290000988022282F3148835483649364A00F0BC
:1072A00041F836483649374A00F03CF83648374905
:1072B000374A00F037F837483749384A00F032F893
:1072C00037483849384A00F02DF838483849394AA3
:1072D00000F028F838483949394A00F023F839488D
:1072E0003949002200F036F838483949002200F0C8
:1072F00031F838483849091A0DF0CBFB374A904726
:1073000025482649884205D00268043003B49047D6
:1073100003BCF7E700208646EC4600200021304AF7
:107320009047FEE7884214D0521A12D003460B430E
:1073300013430324234206D1036804300B60043155
:10734000043AF9D17047037801300B700131013AEA
:10735000F9D17047884202D002700130FAE77047D5
:107360000000042000E003200000042000000420AE
:107370002C6C0300E82A00209C2B0020E473020000
:10738000E4730200E84B03002C6C0300E82A0020A1
:10739000E82A0020F44C0300F44C0300F44C0300F2
:1073A000F44C0300F44C0300F44C0300F44C0300D1
:1073B000F44C03002C6C0300E06C03009C2B0020B9
:1073C0009C2B00209C2B0020743D0020743D00204D
:1073D000743D0020743D0020745D00204172020065
:0473E000A581020081
:1073E40076DF704700BF18467ADF704700BF184643
:1073F4007CDF704700BF18467FDF704700BF184628
:107404008FDF704700BF1846B1DF704700BF1846D2
:1074140033DF704700BF184600B585B00190019B6B
:10742400002B0AD0074B43F001030393019B9B01FC
:107434000293039B0298984700E000BF05B05DF8F3
:1074440004FB00BF6050030000B583B00190019BB2
:107454000433184607F09CF800BF03B05DF804FB42
:1074640000B589B0059003921A460B468DF8133087
:1074740013468DF8123000230793059B181D9DF8C1
:1074840012209DF813109DF8283000931346039A98
:1074940007F042FB0790079B184609B05DF804FB10
:1074A40000B587B0039001921A460B468DF80B3055
:1074B40013468DF80A3000230593039B181D9DF88D
:1074C4000A309DF80B10019A07F04EFB0590059BBE
:1074D400184607B05DF804FB00B583B00190019B2A
:1074E400002B0AD04FF47A70FFF796FF019B013B03
:1074F4000193019B002BF5D100E000BF03B05DF8C0
:1075040004FB000000B583B003460091ADF80630DB
:10751400BDF80630009A1946034808F031FA00BF56
:1075240003B05DF804FB00BFEFBEADDE00B583B071
:1075340008F010FE0190019B0093009B002B04D0E7
:10754400044A9121009808F01BFA00BF03B05DF8CB
:1075540004FB00BF804F030000B587B09DF80030E6
:10756400012262F303038DF800309DF800300122FC
:1075740062F307138DF800306B460B221A49184644
:10758400FFF736FF0590059B0493049B002B04D062
:10759400164AA421049808F0F3F901AB082200214B
:1075A40018460DF0EFFA1023ADF804303C23ADF883
:1075B40006300023ADF808304FF4C873ADF80A3034
:1075C40001AB1846FFF710FF0590059B0393039B3F
:1075D400002B04D0054AAE21039808F0D1F900BF6E
:1075E40007B05DF804FB00BFA84F0300804F030001
:1075F40000B583B00190044ABB21019808F0C0F99A
:1076040000BF03B05DF804FB804F030000B587B0F2
:107614000190019B1B78002B43D1002305932AE0A2
:10762400019B1A69059B13441B78184608F0CEFE8B
:107634000490049B002B18D0049B112B15D01B4ADB
:107644001B4BD31ADB081B0443F00103049A1949AA
:1076540018460BF07BFA049B0393039B002B04D086
:10766400154AD921039808F08BF9049B112BD7D024
:10767400059B01330593019B9B8A1A46059B934204
:10768400CED3019B1A69019B9B8A013B13441B784F
:107694000D2B06D100BF0A2008F098FE0346112BDB
:1076A400F9D000BF07B05DF804FB00BF8C4C0300A9
:1076B4005C4C0300B44F0300804F030000B587B057
:1076C40000230193164B019301AB1946154804F0AE
:1076D400F1FC0590059B0493049B002B04D0124AF3
:1076E400F321049808F04CF902AB04220021184657
:1076F4000DF048FA0D4B029302AB19460C4804F006
:1077040019FF0590059B0393039B002B04D0064AA5
:10771400FB21039808F034F900BF07B05DF804FBBF
:10772400F5750200D82B0020804F0300117602006B
:10773400F42A002000B585B00190019B1B78002B32
:1077440011D10B4B1B883B211846FFF749FE0390D0
:10775400039B0293029B002B05D0064A40F21111B1
:10776400029808F00DF900BF05B05DF804FB00BFF6
:10777400102B0020804F030000B583B00190054A10
:107784004FF48E71019808F0FBF800BF03B05DF868
:1077940004FB00BF804F030000B58BB001AB1C227B
:1077A400002118460DF0EEF9002301934FF4A033A5
:1077B40002934FF4F023039303238DF81030002336
:1077C400ADF8123000238DF814300C4B06930C4B9B
:1077D400079301AB184603F009FC0990099B089331
:1077E400089B002B05D0074A40F23311089808F093
:1077F400C7F800BF0BB05DF804FB00BF3977020087
:107804007D770200804F030000B585B0002001F0B1
:1078140091FB0390039B0293029B002B05D0134A18
:107824004FF49F71029808F0ABF801F00CFD03903F
:10783400039B0193019B002B05D00C4A4FF4A171CB
:10784400019808F09DF8FFF7E3FD0390039B009374
:10785400009B002B05D0054A4FF4A371009808F053
:107864008FF800BF05B05DF804FB00BF804F030034
:1078740000B585B003468DF807309DF80730002B1E
:1078840011D0032B12D1022001F054FB0390039B6F
:107894000293029B002B0BD0084A4FF4AC71029860
:1078A40008F06EF804E0FFF7AFFF02E000BF00E06D
:1078B40000BF00BF05B05DF804FB00BF804F0300AC
:1078C40000B58DB001900091019B1B88562B00F0F0
:1078D400D480562B00F3E480522B00F0A780522B67
:1078E40000F3DE80212B2DDC102BC0F2D980103B5D
:1078F400112B00F2D58001A252F823F05179020035
:10790400B5790200A57A0200097A0200A57A02007C
:10791400A57A0200A57A0200A57A0200A57A0200DF
:10792400A57A0200A57A0200A57A0200A57A0200CF
:10793400A57A0200A57A0200A57A0200A57A0200BF
:10794400D57902003B2B00F08580A9E05D4A5E4BAF
:10795400D31ADB081B0443F003035C4918460BF0FD
:10796400E7F8072001F0E6FA0B900B9B0593059BC3
:10797400002B05D0564A40F27111059808F000F822
:10798400019B9A88534B1A80524B1B8819465248C4
:1079940004F0B2FB0B900B9B0493049B002B00F0B0
:1079A40081804B4A4FF4BA71049807F0E9FF79E0FB
:1079B400444A454BD31ADB081B0443F003034749ED
:1079C40018460BF0B5F8434B4FF6FF721A8074E07B
:1079D40000238DF80C3000238DF80D30019B9B881B
:1079E40003AA11461846FFF70BFD0B900B9B079358
:1079F400079B002B58D0364A4FF4C371079807F001
:107A0400BFFF51E0334B1888002300228521FFF784
:107A1400F3FC0B900B9B0693069B002B46D02C4A41
:107A24004FF4C671069807F0ABFF3FE0294B188866
:107A3400002300220021FFF7E7FC0B900B9B099326
:107A4400099B002B34D0224A4FF4C971099807F0DE
:107A540097FF2DE0019B9B8813211846FFF7C0FC7C
:107A64000B900B9B0893089B002B23D0184A40F2E1
:107A74009911089807F084FF1CE0019B9B8813214F
:107A84001846FFF7ADFC0B900B9B0A930A9B002B47
:107A940012D00F4A4FF4D0710A9807F071FF0BE02F
:107AA40000BF0AE000BF08E000BF06E000BF04E03A
:107AB40000BF02E000BF00E000BF00BF0DB05DF8F2
:107AC40004FB00BF8C4C03005C4C0300E04F03003C
:107AD400804F0300102B0020D82B0020EC4F030014
:107AE40000B587B00BF056FF0590059B0493049BEB
:107AF400002B05D0164A40F2B311049807F040FF5A
:107B04000023019301AB194601200BF0FBFF059004
:107B1400059B0393039B002B05D00D4A40F2B9113A
:107B2400039807F02DFF01AB18460CF009F90590F6
:107B3400059B0293029B002B05D0054A40F2BD1120
:107B4400029807F01DFF00BF07B05DF804FB00BFFB
:107B5400804F030000B583B001900091009B5A88C8
:107B6400114B1B889A421AD1009B1B8840F677223E
:107B7400934214D1009B9B88033B9AB20B4B1A800F
:107B84000B4A0C4BD31ADB081B0443F00300074BCE
:107B94001B881A46054B1B8807490AF0E8FF00BFFB
:107BA40003B05DF804FB00BF102B0020122B002053
:107BB4008C4C03005C4C0300FC4F030000B585B003
:107BC4001149124804F076F90390039B0293029B37
:107BD400002B05D00E4A4FF4EC71029807F0D0FE4A
:107BE400F7210A4804F091F90390039B0193019B48
:107BF400002B05D0064A40F2DB11019807F0C0FEC5
:107C040000BF05B05DF804FB597B0200C42B0020C3
:107C1400804F030000B587B003468DF807309DF808
:107C24000730043B0D2B6AD801A252F823F000BFA1
:107C34006D7C0200037D0200037D0200997C02003A
:107C4400037D0200037D0200037D0200037D020028
:107C5400037D0200037D0200037D0200037D020018
:107C6400CB7C0200E77C0200294B1B8813211846B9
:107C7400FFF7B6FB0590059B082B42D0059B0393A9
:107C8400039B002B3DD0234A4FF4F871039807F06F
:107C940077FE36E01E4B1B884FF6FF72934232D1BB
:107CA4001D4803F024F80590059B082B2BD0059B59
:107CB4000493049B002B26D0164A4FF4FD710498BC
:107CC40007F05EFE1FE0154B1B78002B05D0144B0C
:107CD4001B686433124A136016E0104B17221A70A3
:107CE40012E00E4B1B78172B05D00D4B1B68643B21
:107CF4000B4A136008E0094B00221A7004E000BF2D
:107D040002E000BF00E000BF00BF07B05DF804FB65
:107D1400102B0020804F0300E42B0020183000209B
:107D2400E82A002000B5AFB001ABAC220021184610
:107D34000CF028FF02238DF8043000238DF8063060
:107D440005238DF807300123ADF85030124B1593FD
:107D540001238DF880304023239344F2506324930D
:107D64000E4B2A9301AB19460D4802F0A1FD2D904C
:107D74002D9B2C932C9B002B05D00A4A4FF42A717F
:107D84002C9807F0FDFD0121054802F084FD00BF99
:107D94002FB05DF804FB00BF142B0020757802009F
:107DA400E42B0020804F030000B587B001901749F1
:107DB400032001F0D9F80590059B0493049B002B44
:107DC40005D0134A40F2B721049807F0D9FD0DF10C
:107DD4000B031946002001F099FA0590059B0393C3
:107DE400039B002B05D00A4A40F2BA21039807F0FE
:107DF400C7FD9DF80B30022B0CBF01230023DAB220
:107E0400019B1A7000BF07B05DF804FB197C0200E7
:107E1400804F030000B583B04FF4804100200AF086
:107E2400B5FB0190019B0093009B002B05D0064AF3
:107E340040F2C521009807F0A3FD0AF03DFB00BF06
:107E440003B05DF804FB00BF804F030000B583B0AE
:107E54000AF064F80190019B0093009B002B05D06D
:107E6400044A40F2D121009807F08AFD00BF03B014
:107E74005DF804FB804F030008B50AF0B5FE034625
:107E840083F00103DBB2002B01D00AF05DF800BFE0
:107E940008BD000000B583B00321094802F0E4FDE9
:107EA4000190019B0093009B002B05D0054A40F2F2
:107EB400E721009807F064FD00BF03B05DF804FB00
:107EC400E42B0020804F030082B00190084B1B6814
:107ED40042F21072934203D9054B00221A6004E067
:107EE400034B1B680133024A136000BF02B07047A2
:107EF4009C2B002000B583B00A4A01210A4808F0EF
:107F040067F90190019B0093009B002B05D0074A61
:107F14004FF44071009807F033FD00BF03B05DF8E3
:107F240004FB00BFCD7E0200F44C0300804F03002D
:107F340000B585B00190294A294BD31ADB081B04EC
:107F440043F00300019B1B781A46019B01331B7805
:107F540024490AF00CFE019B1B781BB21B021AB2C7
:107F6400019B01331B781BB21343ADF80E30BDF9EE
:107F74000E3018460CF026F94FF000024FF07E53F5
:107F84000CF062F802460B46104619460CF0F4F861
:107F94000346ADF80C30144B1B781A46BDF80C3070
:107FA400D9B2124B9954BDF90C301A4610490F48F6
:107FB4000CF026FA0C4B1B781A460C4B9B5C1946AA
:107FC4000C480CF081FA084B1B780133DAB2064BEB
:107FD4001A7000BF05B05DF804FB00BF8C4C0300B1
:107FE4005C4C0300185003001E3000202030002099
:107FF400245003002850030000B583B00190009181
:10800400019B1B78002B0AD1019B1B79012B02D108
:108014000548FFF78DFF054B01221A7000E000BFF1
:1080240000BF03B05DF804FB1C30002019300020B1
:1080340000B587B06B4600221A605A609A60DA6015
:108044001B2300931A2301934FF0CC730293022352
:108054008DF80C30694600230B4A0C4804F03AFEB4
:108064000590059B0493049B002B05D0084A40F21D
:108074007231049807F084FC0448FFF7E5F900BF67
:1080840007B05DF804FB00BFFD7F0200F84C03005D
:10809400804F030000B587B000238DF80F300DF139
:1080A4000F0200230093012348210948FFF7D8F960
:1080B4000590059B0493049B002B05D0054A40F2D0
:1080C4007A31049807F05CFC00BF07B05DF804FB4C
:1080D400F84C0300804F030000B583B00C4B002222
:1080E4001A7002230B4A48210B48FFF7D9F9019073
:1080F400019B0093009B002B05D0084A40F282317B
:10810400009807F03DFC00BF03B05DF804FB00BF1E
:10811400193000201C300020F84C0300804F03006D
:1081240000B585B0194B1B78012B23D9174B1B784D
:10813400ADF80630164B1B880DF10602154916489A
:1081440004F09EFA0390039B082B10D0039B132B7F
:108154000DD0039B052B0AD0039B0293029B002B9B
:1081640005D00E4A4FF46571029807F009FC039B91
:10817400132BDBD0054B1B789B001A4600210548C6
:108184000CF000FD00BF05B05DF804FB1E300020BC
:10819400102B002020300020F42A0020804F030000
:1081A40000B585B0FFF736FEFFF7C0F9FFF7A2FE72
:1081B4000DF107031846FFF7F7FDFFF747FEFFF73A
:1081C4008FFCFFF7C9F9FFF7F9FCFFF777FAFFF720
:1081D400A9FDFFF7E1FA174B00221021184608F019
:1081E4002BF80390039B0293029B002B05D0124AA9
:1081F40040F2B131029807F0C3FBFFF719FFFFF714
:1082040049FF0E4A0E4BD31ADB081B0443F0030349
:108214000C4918460AF08CFCFFF73CFE4FF47A70C8
:10822400FFF75AF9FFF758FFFFF77AFFFFF724FE2D
:10823400F4E700BFA02B0020804F03008C4C030008
:108244005C4C03003050030000B583B00190019BE7
:108254001B68184600F01FF90346002B04D10B4994
:108264004FF4F670FFF74EF9019B1B681F2B02D8E1
:108274004FF0A04306E0019B1B6803F01F02019B23
:108284001A60034B184603B05DF804FB6850030002
:108294000003005000B585B00190084611461A4607
:1082A40003468DF803300B468DF8023013468DF8E3
:1082B400013001AB1846FFF7C7FF03909DF8032078
:1082C4009DF802305B001A439DF801309B001A436D
:1082D4009DF818301B0242EA03019DF81C301B0470
:1082E400019A1943039B02F5E07243F8221000BF80
:1082F40005B05DF804FB00B585B00390002301933D
:10830400002300930023012201210398FFF7C2FFF9
:1083140000BF05B05DF804FB00B585B003900B46C3
:108324008DF80B309DF80B30002201920022009250
:10833400002200210398FFF7ADFF00BF05B05DF8F0
:1083440004FB00B585B0019001AB1846FFF77CFF34
:108354000390019B012202FA03F31946039800F0EB
:1083640086F800BF05B05DF804FB00B585B0019048
:1083740001AB1846FFF768FF0390019B012202FA44
:1083840003F31946039800F07CF800BF05B05DF8CC
:1083940004FB00B585B0019001AB1846FFF754FF0C
:1083A4000390039BD3F804350293029BDA43019BA9
:1083B400012101FA03F31A40039BC3F80825019B2A
:1083C40001229A40029B1A40039BC3F80C2500BF6C
:1083D40005B05DF804FB00B583B001900091009BEB
:1083E400002B03D10198FFF7C0FF02E00198FFF7CB
:1083F400A8FF00BF03B05DF804FB00B585B0019091
:1084040001AB1846FFF720FF0390039800F01FF814
:108414000246019B22FA03F303F00103184605B058
:108424005DF804FB00B585B0019001AB1846FFF779
:108434000BFF0390039800F012F80246019B22FA06
:1084440003F303F00103184605B05DF804FB82B0A2
:108454000190019BD3F81035184602B0704782B0E2
:108464000190019BD3F80435184602B0704782B0DE
:1084740001900091019B009AC3F8082500BF02B047
:10848400704782B001900091019B009AC3F80C25BB
:1084940000BF02B0704784B00190019B5B09029356
:1084A40000230393029B002B03D0029B012B04D0D7
:1084B40007E04FF0FF33039303E04FF6FF7303939A
:1084C40000BF019B03F01F030193039A019B22FA4F
:1084D40003F303F00103002B14BF01230023DBB2D9
:1084E400184604B07047000000B585B00190019BA8
:1084F400032B03D911493A20FFF704F8104A019BD2
:1085040013441B781846FFF78DFF0346002B14BF56
:10851400012300238DF80F309DF80F30002B14BF7A
:1085240001230023DBB283F00103DBB203F0010378
:10853400DBB2184605B05DF804FB00BFA850030089
:10854400E850030000B583B00190019B032B03D9CD
:1085540007494120FEF7D6FF064A019B13441B78C6
:1085640000211846FFF737FF00BF03B05DF804FB96
:10857400A8500300E850030000B583B00190019BAC
:10858400032B03D907494720FEF7BCFF064A019B8A
:1085940013441B7801211846FFF71DFF00BF03B0E9
:1085A4005DF804FBA8500300E850030000B583B055
:1085B4000023019305E00198FFF7DEFF019B0133DF
:1085C4000193019B032BF6D900BF00BF03B05DF8F4
:1085D40004FB00B583B00023019305E00198FFF785
:1085E400B1FF019B01330193019B032BF6D900BF1B
:1085F40000BF03B05DF804FB00B583B00190019B9C
:10860400032B03D907495F20FEF77CFF064A019B31
:1086140013441B781846FFF7BCFE00BF03B05DF897
:1086240004FB00BFA8500300E850030000B583B06A
:108634000023019309E0094A019B13441B7818465F
:10864400FFF759FE019B01330193019B032BF2D9E0
:10865400FFF7ACFF00BF03B05DF804FBE850030074
:1086640000B585B00190019B032B03D91149AC20BF
:10867400FEF748FF104A019B13441B781846FFF786
:10868400BCFE0346002B14BF012300238DF80F30DA
:108694009DF80F30002B14BF01230023DBB283F0BD
:1086A4000103DBB203F00103DBB2184605B05DF849
:1086B40004FB00BFA8500300EC50030000B583B0D6
:1086C400002301930AE0094A019B13441B78032108
:1086D4001846FFF721FE019B01330193019B032BF5
:1086E400F1D900BF00BF03B05DF804FBEC500300F8
:1086F40084B001904FF0FF330293002303930DE005
:108704000A4A039B13441B781A46019B934202D1E5
:10871400039B029305E0039B01330393039B032B09
:10872400EED9029B184604B0704700BFEC5003001A
:1087340000B583B00190019B032B03D90549CB20DD
:10874400FEF7E0FE044A019B13441B78184603B06D
:108754005DF804FBA8500300EC50030000B583B09F
:108764000190019B03F00103002B01D0FFF75EFF92
:10877400019B03F00203002B01D0FFF79FFF00BF12
:1087840003B05DF804FB000000B583B00190019BC9
:108794001B68184600F04BF80346002B04D10B4924
:1087A4004FF4F670FEF7AEFE019B1B681F2B02D838
:1087B4004FF0A04306E0019B1B6803F01F02019BDE
:1087C4001A60034B184603B05DF804FBF050030035
:1087D4000003005000B585B001900B468DF80330BE
:1087E40001AB1846FFF7D0FF0390019A039B02F5F3
:1087F400E07253F82230019A23F44031039B02F5CE
:10880400E07243F82210019A039B02F5E07253F8D8
:1088140022109DF803301B04019A1943039B02F5AF
:10882400E07243F8221000BF05B05DF804FB84B089
:108834000190019B5B09029300230393029B002B8D
:1088440003D0029B012B04D007E04FF0FF330393C6
:1088540003E04FF6FF73039300BF019B03F01F0374
:108864000193039A019B22FA03F303F00103002B03
:1088740014BF01230023DBB2184604B0704700B5CF
:1088840083B00190019B032B04D80198FFF7E8FE05
:10889400034600E00023184603B05DF804FB000023
:1088A40000B587B003460A468DF8073013468DF8A5
:1088B400063000238DF81730002304939DF8073009
:1088C4001846FFF715FF0490049B032B62D89DF80C
:1088D4000630022B52D0022B5CDC002B31D0012B52
:1088E40058D13549049A13465B0013440B441B7852
:1088F4008DF817303049049A13465B0013440B4437
:1089040001331B78002B0ED02C4B2D4A4FF48041A1
:10891400184607F091FC0390039B002B03D1284ACF
:108924009DF8073013702449049A13465B001344DE
:108934000B4402331978234A049B13440A461A70E1
:1089440028E01E4B184607F0AFFC1E4A049B134454
:1089540019781948049A13465B00134403440233FC
:108964001B78994215D11449049A13465B001344A9
:108974000B4402331B788DF817300AE00E49049A31
:1089840013465B0013440B4401331B788DF81730F6
:1089940000E000BF9DF81730002B09D00A4B1B687C
:1089A400002B05D0084B1B689DF8172010469847EC
:1089B40000BF07B05DF804FB643100207031002073
:1089C40090310020943100206031002000B583B044
:1089D4000190019B1B7802211846FFF761FF00BF3D
:1089E40003B05DF804FB000000B583B00C4B1B78AA
:1089F400002B0FD00023019308E0019B022B02D02F
:108A04000198FFF7B9FD019B01330193019B032BEF
:108A1400F3D901E0FFF7CAFD00BF03B05DF804FB22
:108A24001C3100202DE9D04F92B003468DF83F3021
:108A34000023119300231093CC4B1B78002B04D0FC
:108A4400CA4A00231370FFF7CFFF9DF83F30172B5E
:108A540000F23F8201A252F823F000BFC18A020053
:108A6400D98A0200D98A0200758B0200118C020097
:108A74008D8C0200218D0200418D0200518D020077
:108A84007D8D02009B8D0200B98D0200D78D0200FE
:108A9400E58D0200E58D0200E58D0200E58D020002
:108AA400E58D0200798E0200878E02009B8E020003
:108AB400AF8E0200C98E0200C98E0200FFF794FF38
:108AC400AB4B184607F0F0FB1190AA4A9DF83F30D3
:108AD4001370FFE10020FFF707FD0346002B0DD0C4
:108AE4000020FFF749FD9DF83F30022B02D14FF4DF
:108AF400E16301E04FF47A6310930BE00020FFF789
:108B040021FD9DF83F30022B01D1C82301E04FF431
:108B1400C8731093974A9DF83F301370944C109B80
:108B24000022009301924FF000024FF00003DDE9B0
:108B340000673946CB03314643EA51433146CA0301
:108B440012F57A71029143F1000303934FF4FA6230
:108B54004FF00003DDE902010BF046FB02460B4631
:108B6400134600221946204607F066FB1190B1E136
:108B74000020FFF7B9FC0346002B0DD00020FFF7BF
:108B8400FBFC9DF83F30032B02D14FF4487301E006
:108B94004FF47A6310930BE00020FFF7D3FC9DF8A9
:108BA4003F30032B01D1C82301E04FF4C873109365
:108BB400704A9DF83F3013706D4C109B0022049353
:108BC40005924FF000024FF00003DDE904673946D7
:108BD400CB03314643EA51433146CA0312F57A7155
:108BE400069143F1000307934FF4FA624FF0000338
:108BF400DDE906010BF0F8FA02460B4613460022A3
:108C04001946204607F018FB119063E10020FFF796
:108C14006BFC0346002B06D00020FFF7ADFC4FF49D
:108C24007A63109305E00020FFF78CFC4FF4C873BF
:108C34001093504A9DF83F3013704D4C109B002206
:108C44009A4693464FF000024FF000034FEACB33AD
:108C540043EA5A434FEACA3212F57A71089143F152
:108C6400000309934FF4FA624FF00003DDE90801B1
:108C74000BF0BAFA02460B46134600221946204668
:108C840007F0DAFA119025E10020FFF72DFC0346E6
:108C9400002B0CD00020FFF76FFC9DF83F30052B14
:108CA40001D1C82301E04FF47A6310930BE0002054
:108CB400FFF748FC9DF83F30052B01D1C82301E0A4
:108CC4004FF4C87310932B4A9DF83F301370284C0F
:108CD400109B0022984691464FF000024FF000038B
:108CE4004FEAC93343EA58434FEAC83212F57A715E
:108CF4000A9143F100030B934FF4FA624FF000031F
:108D0400DDE90A010BF070FA02460B461346002215
:108D14001946204607F090FA1190DBE00020FFF797
:108D24006BFC144A9DF83F301370114B002240F243
:108D34006661184607F080FA1190CBE00020FFF737
:108D440001FC0C4A9DF83F301370C3E0074B01222D
:108D54001A700120FFF750FC054B002240F26661B7
:108D6400184607F069FA1190B4E000BF15310020ED
:108D74002031002014310020594B01221A700120A7
:108D8400FFF73AFC574B00224FF40051184607F006
:108D940053FA11909EE0524B01221A700120FFF702
:108DA4002BFC504B002240F26661184607F044FA4F
:108DB40011908FE04A4B01221A700120FFF71CFC2E
:108DC400484B00224FF40051184607F035FA119031
:108DD40080E0FFF7FEFB444A9DF83F30137079E0D2
:108DE400424B184607F060FA11909DF83F30C3F1EA
:108DF40011031093109B002B35D0119B002B32D103
:108E0400109B012B28D9394C109B9BB21A46C823BE
:108E140002FB03F3DA171E4617464FF000024FF029
:108E24000003FB0343EA5643F20312F57A710C91F3
:108E340043F100030D934FF4FA624FF00003DDE9B0
:108E44000C010BF0D1F902460B46134600221946D9
:108E5400204607F0F1F911900220FFF773FB244B31
:108E640001221A7036E00220FFF786FB204B002215
:108E74001A702FE0FFF7B8FD1B4A9DF83F301370BE
:108E840028E0FFF7B1FD0020FFF75CFB164A9DF8D0
:108E94003F3013701EE0FFF7A7FD0120FFF752FBE0
:108EA400114A9DF83F30137014E0FFF79DFD002038
:108EB400FFF748FB0120FFF745FB0B4A9DF83F30C5
:108EC400137007E0FFF785FB074A9DF83F301370E6
:108ED40000E000BF119B184612B0BDE8D08F00BF60
:108EE40015310020203100201431002040310020B1
:108EF4001C31002000B583B00190074B1B6803F0C0
:108F04000103002B04D0054B1B781846FFF78AFD9C
:108F140000BF03B05DF804FB1831002014310020B9
:108F240000B583B001900220FFF766FB00BF03B0D9
:108F34005DF804FB00B585B003468DF807300023C7
:108F44000393084B1B6803F00103002B05D09DF825
:108F540007301846FFF766FD0390039B184605B0DB
:108F64005DF804FB1831002000B585B00190009134
:108F7400002303932A4A019B13602A4A009B13602F
:108F8400019B03F00203002B2AD00023029308E084
:108F940001220121029800F055F80390029B01334D
:108FA4000293029B032B02D8039B002BF0D0039B5C
:108FB400002B06D140F2333204211B4806F0E0FBBB
:108FC4000390039B002B02D106F062FC0390039BE9
:108FD400002B05D1154A0021154807F0F9F8039034
:108FE400019B03F00103002B14D00120FFF7B6FB13
:108FF400039B002B05D10F4A00210F4807F0E8F826
:109004000390039B002B05D10C4A01210C4807F067
:10901400DFF80390039B184605B05DF804FB00BF1E
:1090240018310020603100203C510300D189020036
:1090340038510300F98E020030510300258F0200DD
:109044003451030084B001900B468DF8033013466D
:109054008DF8023000230393019B032B3CD89DF829
:109064000230012B0BD19DF80330012B04D1019B5D
:10907400DBB20E33DBB200E000238DF802309DF842
:109084000330022B0FD0022B23DC002B16D0012B34
:109094001FD11449019A13465B0013440B449DF8F5
:1090A40002201A701AE00F49019A13465B00134418
:1090B4000B4401339DF802201A700FE00949019A0C
:1090C40013465B0013440B4402339DF802201A70CC
:1090D40004E00723039301E007230393039B18464B
:1090E40004B070476431002000B585B001900B4690
:1090F4008DF80330019B032B14D89DF80330002B0B
:1091040001D0032300E000238DF80F300198FFF70E
:109114000FFB02469DF80F3019461046FFF75AFB25
:10912400002300E00623184605B05DF804FB00B5F3
:1091340083B0019001210198FFF7D6FF034618463A
:1091440003B05DF804FB00B583B0012200210020C8
:10915400FFF778FF0190019B002B04D0019B072BA4
:1091640001D0019B1CE0072202210120FFF76AFFC6
:109174000190019B002B04D0019B072B01D0019B84
:109184000EE0042202210020FFF75CFF0190019B06
:10919400002B04D0019B072B01D0019B00E000238E
:1091A400184603B05DF804FB00B583B00122022128
:1091B4000020FFF747FF0190019B002B04D0019B87
:1091C400072B01D0019B1CE0072202210120FFF79D
:1091D40039FF0190019B002B04D0019B072B01D088
:1091E400019B0EE00A2200210020FFF72BFF0190D3
:1091F400019B002B04D0019B072B01D0019B00E0B5
:109204000023184603B05DF804FB00B583B0019059
:109214000120FFF734FB0346002B03D0019B0222FD
:109224001A700CE00020FFF72AFB0346002B03D042
:10923400019B0B221A7002E0019B00221A7000BFEE
:1092440003B05DF804FB00B583B00020FFF76FFFA7
:109254000190019B002B04D0019B062B01D0019BA4
:109264000CE00120FFF763FF0190019B002B04D069
:10927400019B062B01D0019B00E00023184603B09C
:109284005DF804FB00B585B001900091019B1B883B
:10929400102B02D0112B18D02FE01A4B1B68002B77
:1092A4000DD1FFF750FF0390039B002B07D0164B03
:1092B4001B68002B03D0144B1B6803989847114B71
:1092C4001B6801330F4A136017E00E4B1B68013B08
:1092D4000C4A13600B4B1B68002B0DD1FFF764FF86
:1092E4000390039B002B07D0074B1B68002B03D074
:1092F400054B1B680398984700BF00BF05B05DF895
:1093040004FB00BF9C3100209831002000B585B0DB
:1093140001900091002303930A4A019B1360009B70
:10932400002B02D00098FFF770FF074B1B68002B3F
:1093340002D1FFF739FF0390039B184605B05DF88F
:1093440004FB00BF983100209C310020BFF34F8FF5
:1093540000BF064BDB6803F4E0620449044B13438B
:10936400CB60BFF34F8F00BF00BFFDE700ED00E00F
:109374000400FA0582B0124B1B680193114B1B6861
:109384000093019B082B17D1009B032B12D801A239
:1093940052F823F0A9930200AD930200B1930200A6
:1093A400B5930200012308E0012306E0012304E051
:1093B400012302E0012300E00023184602B07047B5
:1093C400300100103401001082B0124B1B6801936D
:1093D400114B1B680093019B082B17D1009B032B97
:1093E40012D801A252F823F0FD9302000194020066
:1093F4000594020009940200012308E0012306E019
:10940400012304E0012302E0012300E000231846C5
:1094140002B07047300100103401001082B0124BCA
:109424001B680193114B1B680093019B082B17D1F8
:10943400009B032B12D801A252F823F0519402008E
:1094440055940200599402005D940200012308E03F
:10945400002306E0002304E0002302E0002300E0F0
:109464000023184602B07047300100103401001088
:1094740082B0124B1B680193114B1B680093019B34
:10948400082B17D1009B032B12D801A252F823F00A
:10949400A5940200A9940200AD940200B1940200C4
:1094A400012308E0002306E0002304E0002302E097
:1094B400002300E00023184602B07047300100107A
:1094C4003401001082B0124B1B680193114B1B68CE
:1094D4000093019B082B17D1009B032B12D801A2E8
:1094E40052F823F0F9940200FD9402000195020061
:1094F40005950200012308E0002306E0002304E0B0
:10950400002302E0002300E00023184602B0704765
:10951400300100103401001082B0124B1B6801931B
:10952400114B1B680093019B082B17D1009B032B45
:1095340012D801A252F823F04D9502005195020071
:109544005595020059950200012308E0002306E026
:10955400002304E0002302E0002300E00023184677
:1095640002B07047300100103401001082B0124B79
:109574001B680193114B1B680093019B082B17D1A7
:10958400009B032B12D801A252F823F0A1950200EC
:10959400A5950200A9950200AD950200012308E0FB
:1095A400012306E0012304E0012302E0012300E09B
:1095B4000023184602B07047300100103401001037
:1095C400024B034A1A6000BF704700BF182B0020EB
:1095D4000090D00308B5FFF7CDFE0346002B0ED054
:1095E4004FF080430022C3F80C214FF08043002247
:1095F400C3F810214FF080430022C3F83825FFF749
:10960400E3FE0346002B76D04FF080537D4AD3F817
:109614000434C2F820354FF080537A4AD3F8083422
:10962400C2F824354FF08053764AD3F80C34C2F88C
:1096340028354FF08053734AD3F81034C2F82C35D0
:109644004FF080536F4AD3F81434C2F830354FF0DA
:1096540080536C4AD3F81834C2F834354FF0805331
:10966400684AD3F81C34C2F840354FF08053654A39
:10967400D3F82034C2F844354FF08053614AD3F80C
:109684002434C2F848354FF080535E4AD3F8283466
:10969400C2F84C354FF080535A4AD3F82C34C2F8F0
:1096A40050354FF08053574AD3F83034C2F854350C
:1096B4004FF08053534AD3F83434C2F860354FF036
:1096C4008053504AD3F83834C2F864354FF080538D
:1096D4004C4AD3F83C34C2F868354FF08053494AB9
:1096E400D3F84034C2F86C354FF08053454AD3F870
:1096F4004434C2F87035FFF791FE0346002B02D0C4
:10970400414B424A1A60FFF7B3FE0346002B03D0D5
:109714003F4BFB22C3F81825FFF7D4FE0346002B6A
:109724000AD03C4B1B6823F00F023B4B1B6803F031
:109734000F03384913430B60FFF7EEFE0346002B7B
:1097440003D0364B4FF400721A60FFF70FFF034645
:10975400002B0DD04FF08043D3F8003403F0010305
:10976400002B05D04FF080436FF00102C3F80024B2
:109774002B4BD3F888302A4A43F47003C2F888305C
:10978400BFF34F8F00BFBFF36F8F00BF4FF01023A5
:10979400D3F80032002B05DB4FF01023D3F804324A
:1097A400002B2BDA1F4B0122C3F8042500BF1D4BED
:1097B400D3F80034002BFAD04FF010231222C3F850
:1097C400002200BF174BD3F80034002BFAD04FF01F
:1097D40010231222C3F8042200BF124BD3F8003422
:1097E400002BFAD00F4B0022C3F8042500BF0D4B09
:1097F400D3F80034002BFAD0FFF7A8FDFFF7E0FE02
:1098040000BF08BD00C000408C56004048810300E2
:1098140000F00040E40E0040580200104096024060
:1098240000ED00E000E001406DDF704700BF184626
:1098340079DF704700BF18467DDF704700BF1846C8
:1098440064DF704700BF184682B003460091ADF84C
:109854000630BDF80630DAB2009B1A70BDF8063047
:109864001B0A9AB2009B0133D2B21A700223184623
:1098740002B0704700B589B0039002911346ADF869
:109884000630029B1B8803F10902BDF806309A4298
:1098940001D90C2353E004AB1846FFF7C5FF07902A
:1098A400079B0693069B002B01D0069B47E0029B77
:1098B4001B881A46039B134408221A70029B1B88B8
:1098C40001339AB2029B1A80029B1B881A46039B9F
:1098D40013441B221A70029B1B8801339AB2029B09
:1098E4001A80029B1B881A46039B981804AB013309
:1098F400062219460BF014F9029B1B8806339AB210
:10990400029B1A809DF8103023F00103DBB2002B78
:1099140007D1029B1B881A46039B134400221A702A
:1099240006E0029B1B881A46039B134401221A700B
:10993400029B1B8801339AB2029B1A8000231846AB
:1099440009B05DF804FB00B589B00390029101925F
:10995400ADF80230039B1B78012B05D1039B5B7888
:10996400002B01D1072391E0019B1B889A1CBDF8B1
:1099740002309A420ED8039B1B78012B0CD1019B19
:109984001B881A46039B5B7813449A1CBDF802306B
:109994009A4201D90C2379E0019B1B88BDF802206F
:1099A400D31A9BB2023BADF81C30BDF81C30ADF8A5
:1099B4001230019B1B880233029A13440DF11202E8
:1099C40011461846FFF738FF0690069B0593059B42
:1099D400002B01D0059B59E0039B1B78022B06D07A
:1099E400039B5B781A46BDF812309A4209D3BDF83E
:1099F4001230BDF81C209A4203D309238DF81F307E
:109A040016E008238DF81F30039B1B78012B0BD124
:109A1400039B5B781A46BDF81C30934204D3039B26
:109A24005B78ADF8123003E0BDF81C30ADF81230AD
:109A3400BDF81230FE2B01D90C2327E0BDF81230FB
:109A4400DAB2019B1B881946029B0B440132D2B245
:109A54001A70019B1B8801339AB2019B1A80019BE7
:109A64001B881A46029B13449DF81F201A70019B01
:109A74001B8801339AB2019B1A80019B1A88BDF896
:109A8400123013449AB2019B1A800023184609B07D
:109A94005DF804FB00B589B0039002911346ADF85C
:109AA4000630029B1B881A1DBDF806309A4201D964
:109AB4000C233AE00DF116031846FFF7B9FE0790A0
:109AC400079B0693069B002B01D0069B2DE0029B6F
:109AD4001B881A46039B134403221A70029B1B889B
:109AE40001339AB2029B1A80029B1B881A46039B7D
:109AF400134419221A70029B1B8801339AB2029BE9
:109B04001A80BDF81620029B1B881946039B0B4440
:109B140019461046FFF798FE03461A46029B1B8817
:109B240013449AB2029B1A800023184609B05DF8C8
:109B340004FB84B0029101921A4603468DF80F305B
:109B44001346ADF80C30019B1B88DA1CBDF80C30B1
:109B54009A4201D90C2328E0019B1B881A46029BD8
:109B6400134402221A70019B1B8801339AB2019B91
:109B74001A80019B1B881A46029B134401221A7007
:109B8400019B1B8801339AB2019B1A80019B1B889D
:109B94001A46029B13449DF80F201A70019B1B88E0
:109BA40001339AB2019B1A800023184604B070470F
:109BB40084B0029101921A4603468DF80F30134681
:109BC400ADF80C30019B1B88DA1CBDF80C309A42AE
:109BD40001D90C2328E0019B1B881A46029B1344DD
:109BE40002221A70019B1B8801339AB2019B1A80CE
:109BF400019B1B881A46029B13440A221A70019B7C
:109C04001B8801339AB2019B1A80019B1B881A4658
:109C1400029B13449DF80F201A70019B1B8801338B
:109C24009AB2019B1A800023184604B0704700B50D
:109C34008FB0039001930B468DF80B3013468DF8CB
:109C44000A3000238DF83330109B1B88ADF8303078
:109C540000230D9370E0039B5A680D9B9B001A44EC
:109C640005AB106818600DF11B0105AB0022184606
:109C7400FFF7E6FD0A900A9B0993099B002B01D08C
:109C8400099B7BE09DF81B309DF80A209A4250D135
:109C94009DF83330002B01D0002300E002238DF81F
:109CA4002330109B1B881A469DF81B301A449DF8DC
:109CB40023301A44BDF844309A4201DD0C235DE0A0
:109CC4009DF8333083F00103DBB2002B16D0109BD8
:109CD4001B8801339AB2109B1A80109B1B881A466A
:109CE400019B13449DF80B201A70109B1B880133B1
:109CF4009AB2109B1A8001238DF83330109B1B8875
:109D04001A46019B1A440DF11B0105AB1846FFF7D7
:109D140097FD0A900A9B0793079B002B01D0079B92
:109D24002CE0109B1B889DF81B2013449AB2109BB7
:109D34001A800D9B01330D93039B1B881A460D9BC0
:109D4400934288DB9DF83330002B16D0109B1A8881
:109D5400BDF83030D31A9BB2013BADF82E30BDF8BC
:109D64002E30FF2B01D90C2308E0BDF83030019AC6
:109D74001344BDF82E20D2B21A70002318460FB037
:109D84005DF804FB00B58BB0059003930B468DF88A
:109D9400133013468DF812309DF81310BDF834308B
:109DA40001930C9B0093039B02220598FFF73FFF4E
:109DB4000990099B0893089B002B01D0089B14E091
:109DC4009DF81210BDF8343001930C9B0093039B53
:109DD40010220598FFF72BFF0990099B0793079B17
:109DE400002B01D0079B00E0002318460BB05DF860
:109DF40004FB82B00190019B1B88052B0AD9019BAF
:109E04001B88B3F5486F07D9019B1B884FF6FF7277
:109E1400934201D0072325E0019B5B88052B0AD9D7
:109E2400019B5B88B3F5486F07D9019B5B884FF6AC
:109E3400FF72934201D0072314E0019B1B884FF665
:109E4400FF7293420DD0019B5B884FF6FF729342E1
:109E540007D0019B1A88019B5B889A4201D907238A
:109E640000E00023184602B0704700B587B00390A5
:109E740002910192ADF80230019B1B889A1DBDF836
:109E840002309A4201D90C234BE00398FFF7B1FF4B
:109E94000590059B0493049B002B01D0049B40E098
:109EA400019B1B881A46029B134405221A70019BCE
:109EB4001B8801339AB2019B1A80019B1B881A46A6
:109EC400029B134412221A70019B1B8801339AB21D
:109ED400019B1A80039B1A88019B1B881946029BCD
:109EE4000B4419461046FFF7AFFC03461A46019B84
:109EF4001B8813449AB2019B1A80039B5A88019BC6
:109F04001B881946029B0B4419461046FFF79CFC1C
:109F140003461A46019B1B8813449AB2019B1A807C
:109F24000023184607B05DF804FB00B587B0039022
:109F340002910192ADF80230039B9B880233059392
:109F4400019B1B881A46059B13449A1CBDF80230DA
:109F54009A4201D90C2353E0059BFE2B01D90C2313
:109F64004EE0059BDAB2019B1B881946029B0B4409
:109F74000132D2B21A70019B1B8801339AB2019B41
:109F84001A80019B1B881A46029B1344FF221A70F5
:109F9400019B1B8801339AB2019B1A80039B1A8888
:109FA400019B1B881946029B0B4419461046FFF778
:109FB4004BFC03461A46019B1B8813449AB2019B2F
:109FC4001A80039B9B88002B19D0039B9B68002B52
:109FD40001D1072314E0019B1B881A46029B9818A1
:109FE400039B9968039B9B881A460AF099FD019B81
:109FF4001A88039B9B8813449AB2019B1A800023FE
:10A00400184607B05DF804FB00B589B003900291CF
:10A014000192ADF80230039B9B6A002B01D1072308
:10A0240071E000238DF81F3065E0039B996A9DF869
:10A034001F2013465B0013449B000B440693069BAE
:10A044009B8802330593059BFE2B01D90C235AE010
:10A05400059BDAB2019B1B881946029B0B44013213
:10A06400D2B21A70019B1B8801339AB2019B1A80E9
:10A07400019B1B881A46029B134416221A70019BEB
:10A084001B8801339AB2019B1A80069B1A88019B94
:10A094001B881946029B0B4419461046FFF7D4FB54
:10A0A40003461A46019B1B8813449AB2019B1A80EB
:10A0B400069B9B88002B19D0069B9B68002B01D123
:10A0C400072320E0019B1B881A46029B9818069BD5
:10A0D4009968069B9B881A460AF022FD019B1A8800
:10A0E400069B9B8813449AB2019B1A809DF81F30EB
:10A0F40001338DF81F30039B93F82C309DF81F20FB
:10A104009A4292D30023184609B05DF804FB00B5C7
:10A1140095B005900491039200231393039B1B882D
:10A12400ADF84A30039B00221A80059B93F82D302A
:10A13400002B0ED0BDF84A301A4603990498FFF755
:10A1440099FB1390139B1193119B002B01D0119B2E
:10A15400D8E0059B9B78002B0ED0BDF84A301A46F8
:10A1640003990498FFF796FC1390139B1093109B8C
:10A17400002B01D0109BC5E0059BDB78002B10D091
:10A18400059BDB7858B2BDF84A30039A0499FFF76F
:10A19400D0FC1390139B0F930F9B002B01D00F9BAC
:10A1A400B0E0059B5B68002B11D0059B5B6893F9BD
:10A1B4000000BDF84A30039A0499FFF7F9FC1390A4
:10A1C400139B0E930E9B002B01D00E9B9AE0059BD4
:10A1D4001B89002B14D0059B03F10800BDF84A30FD
:10A1E4000193039B0093049B06220221FFF7CAFDFF
:10A1F4001390139B0D930D9B002B01D00D9B81E0BD
:10A20400059B1B8A002B14D0059B03F11000BDF89D
:10A214004A300193039B0093049B07220321FFF719
:10A22400B1FD1390139B0C930C9B002B01D00C9B42
:10A2340068E0059B1B8B002B14D0059B03F11800D1
:10A24400BDF84A300193039B0093049B152214210B
:10A25400FFF798FD1390139B0B930B9B002B01D0DE
:10A264000B9B4FE0059B1B6A002B0FD0059B186AC4
:10A27400BDF84A30039A0499FFF7F7FD1390139B36
:10A284000A930A9B002B01D00A9B3BE0059B5B6A67
:10A29400002B0FD0059B586ABDF84A30039A0499E5
:10A2A400FFF743FE1390139B0993099B002B01D0E6
:10A2B400099B27E0059B93F82C30002B0ED0BDF8AA
:10A2C4004A30039A04990598FFF79EFE1390139B56
:10A2D4000893089B002B01D0089B13E0059B1B7877
:10A2E400002B0ED0BDF84A30039A04990598FFF765
:10A2F4002AFB1390139B0793079B002B01D0079B0A
:10A3040000E0139B184615B05DF804FB86B003907B
:10A3140001921A460B46ADF80A3013468DF80930FF
:10A32400039B002B02D0019B002B01D100235BE097
:10A334000023ADF816300CE0BDF81630039A134430
:10A344001B781A46BDF8163013449BB20133ADF89E
:10A354001630BDF816305A1CBDF80A309A420FDA8E
:10A36400019B1B88BDF816209A42E5D3BDF8163030
:10A374000133039A13441B789DF809209A42DBD1D8
:10A38400BDF81620BDF80A309A4201D300232BE011
:10A39400BDF816300233ADF81430BDF81630039A08
:10A3A40013441B78002B07D0BDF81630039A1344CE
:10A3B4001B78013B9BB200E00023ADF81230BDF8DE
:10A3C4001230002B08D0BDF81420BDF812301A4406
:10A3D400BDF80A309A4201DD002305E0019BBDF877
:10A3E40014201A80BDF81230184606B0704700B524
:10A3F40085B001900B46ADF8023013468DF801305C
:10A404000023ADF80C309DF8013003AABDF802100A
:10A414000198FFF77BFF0346ADF80E30BDF80E3010
:10A42400002B01D1002304E0BDF80C301A46019B37
:10A434001344184605B05DF804FB72DF704700BF93
:10A44400184673DF704700BF184674DF704700BFBB
:10A45400184682B00190019B93F83034184602B03C
:10A46400704784B00190002303930AE0019A039B90
:10A4740013441B78002B01D0012306E0039B013316
:10A484000393039B052BF1D90023184604B07047AE
:10A4940082B003468DF807309DF807305A1C074BED
:10A4A40083FB02135910D317C91A0B469B000B44A4
:10A4B400D11ACBB2184602B0704700BF6766666611
:10A4C40082B001900091009BDB7B012B04D1009BA7
:10A4D4009A88019BA3F8242400BF02B0704700B5FA
:10A4E40085B001900091019B002283F82E24009BEB
:10A4F4009A88019BB3F824349A4216D1019B1B79A4
:10A5040083F00103DBB2002B0FD00121019800F08E
:10A51400ABFA0390039B002B07D0019B9B6B002B92
:10A5240003D0019B9B6B0398984700BF05B05DF86F
:10A5340004FB00B585B001900091009B1B88262B7D
:10A544001ED1009B1B7A012B03D0009B1B7A022B8C
:10A5540017D1019B9B781846FFF79AFF03461946CB
:10A56400019800F081FA0390039B002B09D0019B12
:10A574009B6B002B05D0019B9B6B0398984700E0D5
:10A5840000BF05B05DF804FB00B585B001900B4633
:10A594008DF80330019B03F227431846FFF761FF50
:10A5A40003468DF80F309DF80330013B032B33D85D
:10A5B40001A252F823F000BFCDA50200F1A50200CC
:10A5C40005A6020011A60200019B9B79002B0DD069
:10A5D400019B93F8243083F00103DBB2002B05D0F8
:10A5E4009DF80F30002B01D0012316E0019BDB798D
:10A5F400002B05D09DF80F30002B01D002230CE076
:10A60400019B1B7A002B01D0032306E0019B5B7A9C
:10A61400002B01D0042300E00023184605B05DF8A8
:10A6240004FB00BF82B001900091019B012283F8DA
:10A634003120019B0022C3F82024019B03F226420F
:10A64400009B5A60009B00229A60009B02221A70B1
:10A65400009B80229A810023184602B0704782B082
:10A6640001900091019B022283F83120019B93F811
:10A674002430002B03D0009B07221A7002E0009BB9
:10A6840003221A70019B1B699AB2009B9A81019B59
:10A694000022C3F82024019B03F22642009B5A6047
:10A6A400019BDA68009B9A600023184602B0704749
:10A6B40000B583B00190019B5B79002B0FD0019B07
:10A6C40093F82E3483F00103DBB2002B07D00198FA
:10A6D400FFF7BFFE0346002B01D0012300E0002357
:10A6E40003F00103DBB2184603B05DF804FB00B5C8
:10A6F40085B001900B468DF80330019BD3F810040C
:10A70400019BB3F8143401221946FFF770FE03903D
:10A71400039B002B03D0039B9DF803201A70019B1D
:10A7240003F15400019B03F58261019B3C331A46FB
:10A73400FFF783FE0346184605B05DF804FB00B539
:10A7440085B001900091019B5A69009B9A60019B1E
:10A754009B699AB2009B9A81019B93F82430002B49
:10A7640004D0019B062283F83C2003E0019B0122D4
:10A7740083F83C200198FFF79BFF0346002B13D07E
:10A78400009B02221A7504210198FFF7B0FF039081
:10A79400039B0293029B002B01D0029B0FE0019BC1
:10A7A400052283F8312003E0019B032283F8312042
:10A7B400019B03F58262019BC3F820240023184601
:10A7C40005B05DF804FB00B585B001900091019BD4
:10A7D400DA69009B9A60019B1B6A9AB2009B9A817A
:10A7E400019B93F82430002B04D0019B062283F8AC
:10A7F4003C2003E0019B012283F83C200198FFF7F1
:10A8040057FF0346002B13D0009B02221A75042124
:10A814000198FFF76CFF0390039B0293029B002BAC
:10A8240001D0029B0FE0019B062283F8312003E054
:10A83400019B042283F83120019B03F58262019B72
:10A84400C3F820240023184605B05DF804FB82B049
:10A854000190019B9B78002B06D0019B93F820303C
:10A86400002B01D0002300E00123184602B07047FA
:10A8740084B00190019B93F82430002B03D0EE2385
:10A88400ADF80E3002E01F23ADF80E30BDF80E30E7
:10A89400184604B0704782B001900B468DF803301F
:10A8A400019B9DF8032083F8302000BF02B070475D
:10A8B40030B587B001900091009B002B02D0019B22
:10A8C400002B01D10E23B8E0009B78331846FFF724
:10A8D400BEFF034683F00103DBB2002B01D0072344
:10A8E400ABE0019B00229A70019A009B141D03F1B6
:10A8F40078050FCD0FC40FCD0FC495E8070084E889
:10A904000700019B002283F83020009BD3F8A42089
:10A91400019B5A63009BD3F8A820019B9A63019B77
:10A924004FF6FF72A3F82424019B03F58262019B76
:10A93400C3F82024019B03F2264307220021184672
:10A944000AF020F9019B1B7883F00103DBB2002B92
:10A9540003D0019BFF2283F85420019B03F155028D
:10A96400019BC3F810240198FFF782FF03461A469F
:10A97400019BA3F814240098019B03F15501019B4A
:10A9840003F214431A46FFF7C2FB0590059B049398
:10A99400049B002B01D0049B4FE0019B03F2312266
:10A9A400019BC3F818240198FFF762FF03461A4677
:10A9B400019BA3F81C24009B03F13C00019BD3F8EA
:10A9C4001814019B03F21C431A46FFF7A0FB0590E1
:10A9D400059B0393039B002B01D0039B2DE0019B5C
:10A9E400012283F85120019B9B699AB2019BA3F831
:10A9F4004820019B012283F83C20019B00221A6419
:10AA0400019B002283F85020019B5A69019B5A64E0
:10AA1400019B03F15400019B3C331A460021FFF7CC
:10AA24000CFD0590059B0293029B002B01D0029B19
:10AA340003E0019B01221A70059B184607B030BD44
:10AA440082B00190019B1B68012B07D0019B1B68FE
:10AA5400022B03D0019B1B68042B01D1012300E0CE
:10AA64000023184602B0704700B585B001900B462C
:10AA74008DF80330019B1B7883F00103DBB2002BBC
:10AA840001D0082309E1019B9DF803209A70019BE2
:10AA940003F226430722002118460AF073F8019BAB
:10AAA4009B79002B03D0019B9B78012B0FD0019B3A
:10AAB400DB79002B03D0019B9B78012B07D0019BF2
:10AAC400DB79002B14D0019B9B78022B10D1019BC6
:10AAD4005B6B002B08D0019B012283F82D24019B82
:10AAE4005B6B0820984703E0019B002283F82D2428
:10AAF4009DF8033019460198FFF746FD03461A46B0
:10AB0400019B9A70019B5B6B002B20D0019B9B786F
:10AB1400032B03D0019B9B78042B18D1019B5B79F9
:10AB2400002B14D0019B93F82E3483F00103DBB285
:10AB3400002B0CD0019B002283F83024019B0122BE
:10AB440083F82F24019B5B6B0720984703E0019B4C
:10AB5400002283F82F24019B3C331822002118463D
:10AB64000AF010F8019B012283F83C20019B2C334E
:10AB74001846FFF765FF0346002B06D0019BDB6AEE
:10AB8400DAB2019B83F8512003E0019B012283F890
:10AB94005120019B93F82430002B12D0019B2833C1
:10ABA4001846FFF74DFF0346002B06D0019B9B6A16
:10ABB400DAB2019B83F8522003E0019B012283F85F
:10ABC4005220019B002283F85020019B9B78042B88
:10ABD40031D801A252F823F031AC0200F1AB0200EB
:10ABE40001AC020011AC020021AC0200019B3C3319
:10ABF40019460198FFF716FD03901DE0019B3C33B5
:10AC040019460198FFF72BFD039015E0019B3C3397
:10AC140019460198FFF793FD03900DE0019B3C3327
:10AC240019460198FFF7CFFD039005E0019B002230
:10AC340083F8312000E000BF019B9B78002B20D0DB
:10AC4400019B03F15400019BD3F82014019B3C3376
:10AC54001A46FFF7F2FB0390039B002B01D0039BE2
:10AC64001BE0019B93F85420019B93F83030194664
:10AC74001046FFF7E6FB0390039B002B01D0039BD8
:10AC84000BE0019B5B6B002B06D0019B5B6B019A75
:10AC940092F83120104698470023184605B05DF815
:10ACA40004FB00BF00B585B001900091009B0393A5
:10ACB400019B1B88262B10D0262B13DC102B02D0D3
:10ACC400112B05D00EE001990398FFF7F9FB0AE078
:10ACD40001990398FFF703FC05E001990398FFF736
:10ACE40028FC00E000BF00BF05B05DF804FB00B520
:10ACF40085B00190019B93F854301846FFF7A5FBEB
:10AD0400019B012283F82E24019B002283F8302426
:10AD1400019B002283F8502006210198FFF7E7FCED
:10AD24000390039B0293029B002B01D0029B12E031
:10AD3400019B9B7819460198FFF796FE0390039BAD
:10AD4400002B07D0019B9B6B002B03D0019B9B6BBB
:10AD5400039898470023184605B05DF804FB75DF97
:10AD6400704700BF184676DF704700BF18467ADF89
:10AD7400704700BF18467BDF704700BF18460000CD
:10AD840084B00346ADF806300023039316E00F4960
:10AD9400039A13469B0013449B000B441B88BDF885
:10ADA40006209A4207D1039A13469B0013449B0042
:10ADB400064A134406E0039B01330393039B002BD1
:10ADC400E5D00023184604B0704700BFC03100200E
:10ADD40082B001900B46ADF80230019BBDF8022011
:10ADE4001A80019B00221A72019B054903F10A0291
:10ADF4000B4603CB1060516000BF02B0704700BF28
:10AE0400F031002082B00190019B4FF6FF721A804E
:10AE140000BF02B0704788B00390029111461A46F1
:10AE24000B46ADF806301346ADF80430039B9B88FF
:10AE34001A46BDF8063013440793039B9B881946B2
:10AE4400039B9B88BDF80620934228BF13469BB200
:10AE5400CB1A0693039BDB881A46BDF804301344CF
:10AE64000593039BDB881946039BDB88BDF804200C
:10AE7400934228BF13469BB2CB1A0493029B5A8871
:10AE8400039B1B889A4205D3029B5A88039B5B88C9
:10AE94009A4201D900231CE0029B9B881A46069B18
:10AEA400934205D8029B9B881A46079B934201D282
:10AEB40000230EE0029BDB881A46049B934205D8CC
:10AEC400029BDB881A46059B934201D2002300E0D3
:10AED4000123184608B0704700B583B00190064BB3
:10AEE4009B69002B03D0044B9B690198984700BFD2
:10AEF40003B05DF804FB00BFD431002000B585B079
:10AF040003460091ADF80630BDF8063000991846A6
:10AF1400FFF725FF0390039B002B05D0039B112B08
:10AF240002D00398FFF7D8FF039B002B0CBF01232B
:10AF34000023DBB2184605B05DF804FB00B589B008
:10AF44000190019B0793079B9BB21846FFF718FFDC
:10AF54000690069B002B42D0069B1A7A224B1B7B41
:10AF64009A4215D2079B9AB2069B0A331946104699
:10AF7400FFF7C4FF03468DF813309DF81330002B00
:10AF84002DD0069B1B7A0133DAB2069B1A7226E097
:10AF9400069B00221A72144B1B7C002B0FD0079BBC
:10AFA4009BB23B211846FFF7DEFE0590059B002B64
:10AFB40005D0059B082B02D00598FFF78DFF0A4B9F
:10AFC4005B69002B0BD000238DF80C30079B9BB2E0
:10AFD400ADF80E30044B5B6903AA1046984700BFD6
:10AFE40009B05DF804FB00BFD431002030B587B050
:10AFF4000190019B002B01D10E2353E02B4A019BAE
:10B0040014461D460FCD0FC495E8070084E80700D9
:10B01400264B274A1A60019B1B68002B11D0019B09
:10B024001B681846FFF7A3FE0490049B002B01D075
:10B03400049B37E0019B1A681D4B1068516803C3D9
:10B0440008E01B48FFF797FE0490049B002B01D0F7
:10B05400049B27E00023059320E0059A13469B00F8
:10B0640013449B00134A134403930398FFF7CAFE47
:10B07400059B5B01104A1A44039B5A60039B0433EB
:10B084000E4A0021184605F0A3F80490049B002BF7
:10B0940001D0032306E0059B01330593059B002B98
:10B0A400DBD00023184607B030BD00BFD4310020E8
:10B0B400F0310020C0310020A031002041AF020057
:10B0C40000B587B003460091ADF80630009B5B7A6B
:10B0D400002B1AD1009B1B7A002B03D1164B5B6803
:10B0E400059302E0144B9B680593009B5B68BDF8D5
:10B0F40006200599184605F09FF80490049B002B40
:10B1040016D00498FFF7E8FE12E0009B00221A72A2
:10B11400094B5B69002B0BD001238DF80C30BDF873
:10B124000630ADF80E30044B5B6903AA104698470D
:10B1340000BF07B05DF804FBD431002000B585B032
:10B144000190019BDB7B8DF80F30019B9B88ADF850
:10B154000C309DF80F30012B2CD14FF6FF70FFF708
:10B164000FFE0290029B002B03D10420FFF7B4FED4
:10B1740021E0BDF80C3019460298FFF729FE029B26
:10B1840003F10A00019B03F110014FF6FF7340F233
:10B19400F312FFF740FE03461A46029B5A72074B0E
:10B1A400DB89002B07D1BDF80C3002991846FFF754
:10B1B40087FF00E000BF05B05DF804FBD431002038
:10B1C40000B587B00190019B9B88ADF81630BDF89F
:10B1D40016301846FFF7D4FD0490049B002B0ED0C4
:10B1E400049B5B68184605F05FF80390039B002BF3
:10B1F40002D00398FFF770FE0498FFF703FE00BF28
:10B2040007B05DF804FB000000B587B00190019B16
:10B2140006330593059B1A88194BDB899A422BD177
:10B22400059B5B89022B27D1019B9B88ADF81230CB
:10B23400BDF812301846FFF7A3FD0390039B002BC3
:10B244001AD0059B0C33184600F075FA0346002B00
:10B2540006D0BDF8123003991846FFF731FF0BE012
:10B26400039B5B68184605F01FF80290029B002BB5
:10B2740002D00298FFF730FE00BF07B05DF804FB70
:10B28400D431002000B585B00190019B9B88ADF8B6
:10B294000E30BDF80E301846FFF772FD0290029B87
:10B2A400002B15D0029B03F10A00019B03F1080156
:10B2B4004FF6FF7340F2F312FFF7ADFD03461A4653
:10B2C400029B5A72BDF80E3002991846FFF7F8FE39
:10B2D40000BF05B05DF804FB00B583B00190009198
:10B2E400019B1B88502B12D0502B18DC122B12D030
:10B2F400122B14DC102B02D0112B04D00FE0019878
:10B30400FFF71CFF0CE00198FFF75AFF08E00198D3
:10B31400FFF77AFF04E00198FFF7B4FF00E000BFF5
:10B3240000BF03B05DF804FB30B58FB0019000910D
:10B3340000230293009B002B1AD000230D9314E0EA
:10B344006B460D99184605F052FE0346002B09D0B2
:10B35400029B5A1C02920D9A92B25B0038336B44E2
:10B3640023F82C2C0D9B01330D930D9B132BE7D944
:10B37400019B1D4602AC0FCC0FC50FCC0FC594E842
:10B38400070085E8070001980FB030BD00B583B011
:10B394000346ADF80630BDF80630132B01D900235F
:10B3A4000CE0BDF806301946064805F0EFFDBDF87F
:10B3B40006301946044805F0E9FD0123184603B098
:10B3C4005DF804FB00320020FC31002000B585B09C
:10B3D4000346ADF80630002303930DE0039B9B0066
:10B3E400094A13440433BDF806201146184605F0F3
:10B3F400E5FD039B01330393039B1D2BEED900BF93
:10B4040000BF05B05DF804FBF831002000B583B03F
:10B414000346ADF80630BDF806301946034805F07A
:10B42400CDFD00BF03B05DF804FB00BF0032002077
:10B4340030B59BB0184B9B68DB431893164B5A6886
:10B4440018AB1146184605F031FE189A6B461146A2
:10B454001846FFF769FF0DAC6D460FCD0FC40FCD35
:10B464000FC495E8070084E80700002319930BE054
:10B47400199B5B0068336B4433F8303C1846FFF784
:10B48400A5FF199B013319930D9B199A9A42EFD387
:10B4940000BF00BF1BB030BDF831002000B583B041
:10B4A40001900B46ADF8023013468DF801309DF83B
:10B4B4000130002B06D0BDF802301946019805F082
:10B4C40065FD05E0BDF802301946019805F076FDEA
:10B4D40000BF03B05DF804FB00B585B00190009196
:10B4E400019B9B88ADF80E30019B1B88103B0A2BF7
:10B4F40000F2888001A252F823F000BF2DB50200AB
:10B5040069B5020009B6020009B6020009B60200D4
:10B5140009B6020009B6020009B6020009B6020023
:10B52400D3B5020075B50200FFF782FFBDF80E30F7
:10B534001846FFF72BFF034683F00103DBB2002B11
:10B5440005D0324AF021042004F01AFA57E0019B96
:10B55400DB7B022B53D1BDF80E3019462C4805F085
:10B5640015FD4CE0BDF80E301846FFF74FFF49E0DB
:10B57400019B1B7AC3F30313DBB28DF80D309DF8E6
:10B584000D30032B8CBF01230023DAB2BDF80E303B
:10B5940019462048FFF782FF9DF80D30022B8CBF1F
:10B5A40001230023DAB2BDF80E3019461A48FFF71A
:10B5B40075FF9DF80D30012B8CBF01230023DAB2F7
:10B5C400BDF80E3019461548FFF768FF1AE0019BD5
:10B5D4001B7A002B15D1019B5B7AC3F3C003DBB24A
:10B5E400002B14BF012300238DF80C309DF80C2090
:10B5F400BDF80E3019460748FFF750FF01E000BFC1
:10B6040000E000BF00BF05B05DF804FB5C5103001F
:10B6140004320020103200200C32002008320020B6
:10B6240000B583B00346ADF80630BDF80630132BE1
:10B6340001D9002306E0BDF806301946034805F099
:10B64400D6FC0346184603B05DF804FBFC31002029
:10B6540000B583B00346ADF80630BDF80630184691
:10B66400FFF7DEFF0346002B02D0BDF8063000E0F2
:10B674001423184603B05DF804FB00B587B00390AB
:10B684000B460192ADF80A30019B002B01D10E2329
:10B6940038E0019B00221A60039B002B01D10E238A
:10B6A40030E0039B1B68002B01D10E232AE0039B8F
:10B6B400DB8803F003039BB2002B01D0072321E0B6
:10B6C400BDF80A301846FFF7C3FF03468DF817305C
:10B6D4009DF81730142B01D1052313E0039B1B792C
:10B6E4009DF817209A4201D304230BE0039B1B68A7
:10B6F4009DF817200399C98801FB02F21A44019BA3
:10B704001A600023184607B05DF804FB82B001906C
:10B71400019B1B781AB2019B01331B781BB21B02DD
:10B724001BB213431BB29BB2184602B07047AADF88
:10B73400704700BF184600B585B001900198FFF727
:10B74400E5FF0346ADF80E30BDF80E3003F00103FB
:10B75400002B14BF01230023DBB2184605B05DF8AB
:10B7640004FB000082B0034600918DF80730009A74
:10B77400137823F00F031370009A137823F0F00367
:10B7840013709DF80730052B5BD801A252F823F003
:10B79400ADB70200C3B70200DDB70200F7B702007D
:10B7A40011B802002BB80200009A137823F00F039B
:10B7B4001370009A137823F0F003137040E0009A9A
:10B7C4001378012161F303031370009A13780121A4
:10B7D40061F30713137033E0009A1378012161F3C6
:10B7E40003031370009A1378022161F30713137093
:10B7F40026E0009A1378012161F303031370009A81
:10B804001378032161F30713137019E0009A137876
:10B81400022161F303031370009A1378012161F389
:10B82400071313700CE0009A1378022161F30303E9
:10B834001370009A1378022161F30713137000BF89
:10B8440000BF00BF02B0704700B595B00346029137
:10B854000192ADF80E30029B9B78002B03D101239B
:10B864008DF81E3003E0029B9B788DF81E30029BFE
:10B874001B88ADF81C3006AB03220021184609F0E2
:10B8840081F9029B5B7C06AA11461846FFF76AFF02
:10B89400029B9A7C06AB013319461046FFF762FF00
:10B8A400029BDA7B9DF81A3062F3C3038DF81A30D9
:10B8B400029B1A7C9DF81A3062F304138DF81A3037
:10B8C400029B1A7B9DF81A3062F300038DF81A303C
:10B8D400029B1B7D002B01D0022200E001229DF877
:10B8E4001A3062F342038DF81A300DAB1C2200218A
:10B8F400184609F047F9029B5B7B03F01003DBB2A7
:10B90400002B06D1029B5B7B03F02003DBB2002BF0
:10B9140024D004AB03220021184609F033F9029B1A
:10B92400DA7C04AB013319461046FFF71BFF9DF880
:10B934001030012262F303038DF810309DF81030AB
:10B94400012262F307138DF810309DF812300122A2
:10B9540062F342038DF8123004AB1293029B5B7BBB
:10B964008DF83430029B9B7B8DF8353008AB142264
:10B974000021184609F006F907AB089306AB0993B2
:10B98400029B9B88ADF82C30029B9B68002B06D051
:10B99400029BDB88ADF82830029B9B680C93029BCA
:10B9A4009B69002B4FD005AB03220021184609F0F8
:10B9B400E9F8029B9B691B88ADF83C30029B9B69AC
:10B9C4005B88ADF83E30029B9B695B680E9305ABC8
:10B9D4001193029B9B691B7B05AA11461846FFF72E
:10B9E400C1FE029B9B695A7B05AB01331946104685
:10B9F400FFF7B8FE029B9B699A7A9DF8163062F3B2
:10BA0400C3038DF81630029B9B69DA7A9DF81630D1
:10BA140062F304138DF81630029B9B691A7A9DF821
:10BA2400163062F300038DF81630029B9B699B7BF2
:10BA3400002B01D0022200E001229DF8163062F3AF
:10BA440042038DF81630029BDB69002B02D0029B67
:10BA5400DB69109308AA0DA9BDF80E00019BFFF73E
:10BA640066FE0346184615B05DF804FB90DF704788
:10BA740000BF1846A5DF704700BF1846B5DF704702
:10BA840000BF184682B00190019BF7221A80019BE7
:10BA940017225A80019B00221A71019B00225A71BD
:10BAA400019BFB229A71019B1B22DA7100BF02B039
:10BAB4007047000030B589B003460A46ADF8063039
:10BAC4001346ADF80430BDF80430ADF81430BDF8B9
:10BAD4000430ADF816300023ADF818300023ADF86B
:10BAE4001A3003AB00221A609A8003AA05A9BDF894
:10BAF40006301846FFF7BAFF0790079B002B39D092
:10BB04001E4A1F4BD31ADB081B0443F00104BDF883
:10BB14000650079806F05AFB03462A461949204660
:10BB240007F025F8BDF80C30002B03D1BDF80E301A
:10BB3400002B0ED0114A124BD31ADB081B0443F01E
:10BB44000100BDF80C301A46BDF80E300E4907F05E
:10BB54000EF8BDF81030002B0CD0084A084BD31A4D
:10BB6400DB081B0443F00103BDF810200749184605
:10BB740006F0ECFF079B184609B030BDB44C030037
:10BB84005C4C0300B8510300045203004452030008
:10BB940010B586B001900091009B9B88ADF80E30E3
:10BBA400BDF80E30DB00019A134406330593019B64
:10BBB4001A79059B9A71009BDB7B012B02D0022B27
:10BBC40005D009E0019B1A88059B1A8004E0019BBB
:10BBD4005A88059B1A8000BF059B1A88059B5B88C1
:10BBE4009A4226D9059B1A88BDF80E30114618468C
:10BBF400FFF740FF0490049B002B03D1059B012217
:10BC04005A7116E0049B112B03D1059B01221A7172
:10BC14000FE0114A114BD31ADB081B0443F0010453
:10BC2400049806F0D3FA03461A460D49204606F056
:10BC34008DFF059B9A79059BDB799A4208D9059B70
:10BC44009B791A46BDF80E3011461846FFF732FFAD
:10BC540000BF06B010BD00BFB44C03005C4C030031
:10BC64009C52030000B583B001900091009B9B8817
:10BC7400DB00019A134406331846FFF703FF00BFA5
:10BC840003B05DF804FB00B587B001900091009B00
:10BC94009B88ADF81630009B5B89ADF81430BDF875
:10BCA4001630DB00019A134406330493049B1B886B
:10BCB400BDF81420934228BF13469AB2049B5A80BD
:10BCC400049B5B88172B38BF17239AB2049B5A80B6
:10BCD400019B1B69002B15D0049B5B79002B11D0B1
:10BCE40040F67723ADF80830BDF81630ADF80A30C9
:10BCF400049B5B88ADF80C30019B1B6902AA1146BA
:10BD040001989847049B00225A71049B00221A71DF
:10BD140000BF07B05DF804FB10B588B00190009136
:10BD2400009B9B88ADF81A30009BDB88ADF8183077
:10BD3400BDF81A30DB00019A134406330593BDF8AD
:10BD44001830172B38BF1723ADF81830059B1B8804
:10BD5400BDF81820934228BF13469AB2059B5A8017
:10BD6400059B00221A71059B1A88BDF81A301146EA
:10BD74001846FFF783FE0790079B002B0FD0174A46
:10BD8400174BD31ADB081B0443F00104079806F091
:10BD94001DFA03461A461349204606F0D7FE059BB2
:10BDA4005B79002B16D1019B1B69002B13D040F645
:10BDB4007723ADF80C30BDF81A30ADF80E30059B82
:10BDC4005B88ADF81030019B1B6903AA11460198EA
:10BDD400984700E000BF08B010BD00BFB44C03009A
:10BDE4005C4C0300D052030030B591B00190009137
:10BDF400009B04AC1D1D0FCD0FC40FCD0FC495E8DF
:10BE0400070084E80700BDF81030ADF83E30BDF8F7
:10BE14001420BDF83E30D1B2019ADB0013440A4627
:10BE24005A73019B1B69002B19D002AB00221A60C4
:10BE34009A804DF67A23ADF80830BDF83E30ADF85F
:10BE44000A30BDF83E30019ADB0013445B7B8DF869
:10BE54000C30019B1B6902AA11460198984700BF48
:10BE640011B030BD00B587B001900091009B043340
:10BE74000593059B1B88DB00019A13440633049346
:10BE8400059B9B888DF80F30049B9B799DF80F20B0
:10BE9400934228BF13468DF80E30059B1B889DF8EE
:10BEA4000E2092B211461846FFF704FE00BF07B0F9
:10BEB4005DF804FB00B585B001900091019B002B57
:10BEC40001D10E231DE0019B009A1A61019BF72208
:10BED4001A80019BF7225A80019BFB221A710023CE
:10BEE40003930AE0039BDB00019A134406331846CC
:10BEF400FFF7C8FD039B01330393039B002BF1D091
:10BF04000023184605B05DF804FB82B001900B468F
:10BF1400ADF80230019B002B01D10E230EE0BDF8D9
:10BF24000230162B03D9BDF80230F72B01D90723B1
:10BF340004E0019BBDF802201A800023184602B0D9
:10BF44007047000010B586B001900091009B0593E6
:10BF5400019B9B88ADF81230BDF81230002B40F0E5
:10BF64009880019B1B88552B48D0552B55DC242BDE
:10BF740032DC102B51DB103B142B4ED801A252F8AB
:10BF840023F000BFE3BF0200EDBF02001FC00200A8
:10BF94001FC002001FC002001FC002001FC0020019
:10BFA4001FC002001FC002001FC002001FC0020009
:10BFB4001FC002001FC002001FC002001FC00200F9
:10BFC4001FC002001FC002001FC002001FC00200E9
:10BFD40015C002000BC002003A2B0AD01DE00199E3
:10BFE4000598FFF7D5FD19E001990598FFF73AFE8A
:10BFF40014E001990598FFF746FE0FE001990598B2
:10C00400FFF78AFE0AE001990598FFF7EDFE05E0C7
:10C0140001990598FFF726FF00E000BFBDF8123034
:10C02400059ADB0013449B7A002B33D0BDF8123001
:10C03400059ADB001344DA88BDF81230114618461D
:10C04400FFF718FD0390039B002B0ED1BDF81230AF
:10C05400059ADB00134400229A72BDF81230059A47
:10C06400DB0013440122DA7214E0039B112B11D07C
:10C07400094A0A4BD31ADB081B0443F00104039852
:10C0840006F0A4F803461A460549204606F05EFD6C
:10C0940000E000BF06B010BDB44C03005C4C0300CC
:10C0A4009C520300B0DF704700BF184666DF70473C
:10C0B40000BF184682B001900091019B002B01D172
:10C0C4000E2316E0009B002B01D10E2311E0019BEF
:10C0D4001B78DE2B01D108230BE0009B1A68019B1F
:10C0E4005A60019BDE221A70019B4FF6FF725A8040
:10C0F4000023184602B0704782B001900B46ADF899
:10C104000230019B002B01D10E230AE0019B1B7816
:10C11400DE2B01D0082304E0019BBDF802205A80E5
:10C124000023184602B0704700B585B00190019B0A
:10C134001B7A002B18D0019B5B8800211846FFF75F
:10C14400B5FF0390039B002B03D1019B00221A72BD
:10C154000AE0039B112B03D1019B01221A7203E015
:10C16400019B5B680398984700BF05B05DF804FB2A
:10C1740000B583B001900091009B1B79012B0BD17A
:10C18400009B1A88019B5B889A4205D1019B01227E
:10C194001A720198FFF7C8FF00BF03B05DF804FBF3
:10C1A40082B00190009100BF02B0704700B589B021
:10C1B40001900091009B1A88019B5B889A4236D1BA
:10C1C400009B02330793079B1B78022B31D1079BFB
:10C1D4001B7A042B07D0079B1B7A062B03D0079BE3
:10C1E4001B7A052B27D102AB00221A605A609A6091
:10C1F400DA6002238DF808304FF4C073ADF80C30C8
:10C20400079B1B7A052B02D10023ADF80C30009B51
:10C214001B8802AA11461846FFF744FF0690069BA6
:10C22400002B09D0019B5B680698984704E000BF87
:10C2340002E000BF00E000BF09B05DF804FB00B5F8
:10C2440085B001900091009B002B43D0019B002BF3
:10C2540040D0009B0393039B1B78DE2B3AD1019BB8
:10C264009A88039B5B889A4202D10398FFF75CFF8C
:10C27400019B1B88512B18D0512B28DC112B1BD070
:10C28400112B24DC012B02D0022B07D01FE0019BD1
:10C29400043319460398FFF76BFF1BE0019B04333B
:10C2A40019460398FFF77CFF14E0019B04331946F9
:10C2B4000398FFF77BFF0DE0019B9A88039B5B8843
:10C2C4009A4206D1039B4FF6FF725A8001E000BFE9
:10C2D40000E000BF05B05DF804FBA8DF704700BFB5
:10C2E4001846ADDF704700BF1846AEDF704700BF89
:10C2F400184662DF704700BF184600B58FB0019042
:10C30400009100230393019B5869009B9B8803AA17
:10C314001946FFF7B2F90D9005AB08220021184623
:10C3240008F030FC04AB06930223ADF8143000236C
:10C33400ADF81630009B9888019B1B8905AA194605
:10C34400FFF7CFFF0D900D9B002B26D1019B9B691E
:10C35400002B22D0069B1846FFF7EDF90346002B6D
:10C364001BD0039B002B02D0039B01221A7007AB46
:10C3740018220021184608F005FC02238DF81C3011
:10C38400019B0893009B9B88ADF82430039B0A9380
:10C39400019B9B6907AA1046984700BF0FB05DF840
:10C3A40004FB00B58DB001900091009B06330B9304
:10C3B400019B5869009B9B8803AA1946FFF75DF906
:10C3C4000A9004AB18220021184608F0DBFB019BFD
:10C3D4000593009B9B88ADF81830039B07930B9B38
:10C3E4001A88019B1B899A4225D10B9B5B89022BDE
:10C3F40021D1039B002B38D00B9B0C331846FFF73D
:10C404009AF90346002B06D0039B01221A700223DB
:10C414008DF8103005E0039B00221A7003238DF879
:10C424001030019B9B69002B1FD0019B9B6904AAC0
:10C434001046984719E00B9B1A88019B9B899A42E6
:10C4440014D1019B9B69002B10D000238DF8103070
:10C454000B9B0C3308930B9B5B89ADF82430019B39
:10C464009B6904AA1046984700E000BF00BF0DB0C6
:10C474005DF804FB00B58BB001900091019B5869F5
:10C48400009B9B8802AA1946FFF7F7F80990099BBD
:10C49400002B1ED1029B1B78002B1BD0019B9B6998
:10C4A400002B17D003AB18220021184608F06AFBB2
:10C4B40001238DF80C30019B0493009B9B88ADF8FD
:10C4C4001430029B0693019B9B6903AA104698476C
:10C4D40000E000BF0BB05DF804FB00B585B001902F
:10C4E4000091009B002B1ED0019B002B1BD0009BB6
:10C4F4000393019B1B88572B10D0572B15DC102B53
:10C5040002D0502B05D010E001990398FFF7F5FEF7
:10C514000CE001990398FFF744FF07E001990398A1
:10C52400FFF7A8FF02E000BF00E000BF05B05DF820
:10C5340004FB000010B592B0019000914F4B0AAC7F
:10C544000FCB84E80F00019B002B01D10E2391E057
:10C55400009B002B01D10E238CE0009B1A68019BE9
:10C564009A61019A0AAB11461846FFF7C2FE119070
:10C57400119B1093109B002B01D0109B7AE0019B20
:10C584001B788DF83A300123ADF83830019B9A1CA2
:10C594000EAB19460120FFF7A0FE1190119B0F93DB
:10C5A4000F9B002B01D00F9B64E002AB20220021E3
:10C5B400184608F0E7FA0223ADF80830019B1B780F
:10C5C4008DF80A30F423ADF80C300123ADF80E30A9
:10C5D40001238DF814309DF8153043F008038DF8CD
:10C5E40015309DF8153043F004038DF81530012300
:10C5F4008DF8193001238DF81A30019B5888019B5E
:10C6040003F10C0202AB1946FFF71EF91190119BBE
:10C61400002B01D0119B2DE002AB202200211846F3
:10C6240008F0B0FA0323ADF80830019B1B788DF8AD
:10C634000A30F423ADF80C300123ADF80E30012399
:10C644008DF814309DF8153043F010038DF8153033
:10C6540001238DF8193001238DF81A3001238DF848
:10C664001B30019B5888019B1A1D02AB1946FFF72A
:10C67400EBF80346184612B010BD00BF0853030080
:10C6840000B58DB0039002910192ADF80230039B86
:10C69400002B01D10E2342E0039B5B6905AABDF880
:10C6A40002101846FEF7E9FF0B900B9B0A930A9BB6
:10C6B400002B01D00A9B32E0BDF802304FF6FF7226
:10C6C400934202D0059B002B01D1052327E0059B53
:10C6D4001B7883F00103DBB2002B01D008231EE09A
:10C6E400019B1B88F42B01D9072318E006AB102209
:10C6F4000021184608F046FA039B9B88ADF81830D1
:10C70400029B0993019B089301238DF81A3006AA12
:10C71400BDF8023011461846FFF7E7FD03461846F8
:10C724000DB05DF804FB000082B003468DF80730BD
:10C734009DF90730002B13DB9DF8073003F01F022F
:10C7440009499DF907305B09012000FA02F2203300
:10C7540041F82320BFF34F8F00BFBFF36F8F00BF9B
:10C7640000BF02B0704700BF00E100E0044BD3F803
:10C774000034002B14BF01230023DBB2184670479A
:10C784000000014008B507F059F9034683F001039E
:10C79400DBB2002B03D109497B20FAF7B3FEFFF784
:10C7A400E5FF034683F00103DBB2002B04D000F065
:10C7B40029FC034B00229A7000BF08BD20530300DC
:10C7C4007432002000B583B000230193184B1B780A
:10C7D400002B02D0852301931CE0154B00229A60A4
:10C7E400134B00225A60124B00221A61104B002294
:10C7F400DA60104800F0CCFB019007F01FF9034603
:10C8040083F00103DBB2002B01D000F0E7FB084BFF
:10C8140001221A70FFF7AAFF0346002B02D0044B33
:10C8240001229A70019B184603B05DF804FB00BF17
:10C834007432002011C9020084B00190019B1B686E
:10C844000393039B002B03D0039B1A68019B1A607C
:10C85400039B184604B0704700B583B0164B1B7891
:10C86400002B04D1154940F21710FAF74BFE124B76
:10C87400DB68002B04D111494FF48C70FAF742FEA7
:10C8840000238DF807300DF10703184603F042FE2C
:10C89400094BDB68013B084AD360074BDB68002B7C
:10C8A40001D1FFF76FFF9DF80730184603F048FEEB
:10C8B40000BF03B05DF804FB743200202053030072
:10C8C40000B585B003468DF807309DF80730002B7E
:10C8D40002D10C4B039301E00B4B03930398FFF736
:10C8E400ABFF0290029B002B06D0029B5B689DF875
:10C8F400072010469847F1E700BF00BF05B05DF878
:10C9040004FB00BF7C3200208432002000B583B0D9
:10C9140003468DF807309DF80730002B05D10A4BEC
:10C9240001225A700020FFF7CBFF9DF80730012B3E
:10C9340005D1054B01229A700120FFF7C1FF00BF0A
:10C9440003B05DF804FB00BF7432002000B583B06F
:10C9540001900091019B002B05D1054B01225A70D7
:10C964000020FFF7ADFF00BF03B05DF804FB00BF7C
:10C974007432002000B585B0034600918DF807306D
:10C984009DF80730032B29D0032B35DC002B02D074
:10C99400012B04D030E00020FFF7C6FE2DE0002379
:10C9A4008DF80F300DF10F03184603F0B3FD154B4E
:10C9B4001B7883F00103DBB2002B01D0FFF702FFE9
:10C9C400104BDB6801330F4AD3600E4B01229A707F
:10C9D4009DF80F30184603F0B3FD0EE0094B1B78A9
:10C9E400002B04D1084940F25220FAF78BFD00F0E5
:10C9F400F5FAFFF731FF00E000BF00BF05B05DF8B6
:10CA040004FB00BF743200202053030000B585B03E
:10CA14000190019B002B0AD0074B43F001030393C1
:10CA2400019B9B010293039B0298984700E000BF7F
:10CA340005B05DF804FB00BFB053030000B583B03C
:10CA44000190019B1B68184600F077F80346002B01
:10CA540004D10B494FF4F670FAF754FD019B1B689F
:10CA64001F2B02D84FF0A04306E0019B1B6803F084
:10CA74001F02019B1A60034B184603B05DF804FBC8
:10CA84006C5303000003005000B585B0019001AB66
:10CA94001846FFF7D3FF0390019B012202FA03F328
:10CAA4001946039800F035F800BF05B05DF804FBA3
:10CAB40000B585B0019001AB1846FFF7BFFF0390A6
:10CAC400019B012202FA03F31946039800F02BF8A4
